:1000000000308A001A28000023308400831300087F
:10001000031917280230F800F701F70B0D28F80B29
:100020000C289730F700F70B1328800B0A288A1149
:100030000A12422803081F398300FF30A0008316EC
:1000400003170908C039890003131F129F120030DB
:100050000317880083128701880189018313F03018
:1000600083160313880083128801A1018316870079
:100070008312A0008701A20121088700A10A643031
:10008000A3000428A11B482821080F3C031CA10140
:10009000061C532822088800A20AA21B5328220803
:1000A0000F3C031CA201861C5E28A20322088800C4
:1000B000A21B5E2822080F3C031CA2012208210279
:0800C0000319A1013C286300B3
:04400E00F12CFF3F53
:00000001FF
;PIC16F887
;CRC=86A4  CREATED="27-ago.-22 04:48"
